{
  "contractName": "Lottery",
  "abi": [
    {
      "constant": true,
      "inputs": [],
      "name": "manager",
      "outputs": [
        {
          "name": "",
          "type": "address"
        }
      ],
      "payable": false,
      "stateMutability": "view",
      "type": "function"
    },
    {
      "constant": true,
      "inputs": [
        {
          "name": "",
          "type": "uint256"
        }
      ],
      "name": "players",
      "outputs": [
        {
          "name": "",
          "type": "address"
        }
      ],
      "payable": false,
      "stateMutability": "view",
      "type": "function"
    },
    {
      "inputs": [],
      "payable": false,
      "stateMutability": "nonpayable",
      "type": "constructor"
    },
    {
      "constant": false,
      "inputs": [],
      "name": "enter",
      "outputs": [],
      "payable": true,
      "stateMutability": "payable",
      "type": "function"
    },
    {
      "constant": true,
      "inputs": [],
      "name": "getArray",
      "outputs": [
        {
          "name": "",
          "type": "address[]"
        }
      ],
      "payable": false,
      "stateMutability": "view",
      "type": "function"
    },
    {
      "constant": false,
      "inputs": [],
      "name": "pickWinner",
      "outputs": [],
      "payable": false,
      "stateMutability": "nonpayable",
      "type": "function"
    }
  ],
  "bytecode": "0x608060405234801561001057600080fd5b5060008054600160a060020a03191633179055610481806100326000396000f3fe60806040526004361061006c5763ffffffff7c0100000000000000000000000000000000000000000000000000000000600035041663481c6a7581146100715780635d495aea146100a2578063d504ea1d146100b9578063e97dcb621461011e578063f71d96cb14610126575b600080fd5b34801561007d57600080fd5b50610086610150565b60408051600160a060020a039092168252519081900360200190f35b3480156100ae57600080fd5b506100b761015f565b005b3480156100c557600080fd5b506100ce6101ec565b60408051602080825283518183015283519192839290830191858101910280838360005b8381101561010a5781810151838201526020016100f2565b505050509050019250505060405180910390f35b6100b761024f565b34801561013257600080fd5b506100866004803603602081101561014957600080fd5b5035610314565b600054600160a060020a031681565b60015460009061016d61033c565b81151561017657fe5b06905060018181548110151561018857fe5b6000918252602082200154604051600160a060020a0390911691303180156108fc02929091818181858888f193505050501580156101ca573d6000803e3d6000fd5b5060408051600081526020810191829052516101e8916001916103b2565b5050565b6060600180548060200260200160405190810160405280929190818152602001828054801561024457602002820191906000526020600020905b8154600160a060020a03168152600190910190602001808311610226575b505050505090505b90565b662386f26fc1000034116102c457604080517f08c379a000000000000000000000000000000000000000000000000000000000815260206004820152601460248201527f696e73756666696369656e742062616c616e6365000000000000000000000000604482015290519081900360640190fd5b6001805480820182556000919091527fb10e2d527612073b26eecdfd717e6a320cf44b4afac2b0732d9fcbe2b7fa0cf601805473ffffffffffffffffffffffffffffffffffffffff191633179055565b600180548290811061032257fe5b600091825260209091200154600160a060020a0316905081565b6000804442600160405160200180848152602001838152602001828054801561038e57602002820191906000526020600020905b8154600160a060020a03168152600190910190602001808311610370575b505060408051601f1981840301815291905280516020909101209550505050505090565b828054828255906000526020600020908101928215610414579160200282015b82811115610414578251825473ffffffffffffffffffffffffffffffffffffffff1916600160a060020a039091161782556020909201916001909101906103d2565b50610420929150610424565b5090565b61024c91905b8082111561042057805473ffffffffffffffffffffffffffffffffffffffff1916815560010161042a56fea165627a7a72305820ed1cd9cebd6a8cfb2c796822fbfab3750595caf07b130bde4c6501b8265716150029",
  "source": "pragma solidity >=0.4.22 <0.6.0;\r\n\r\ncontract Lottery{\r\n    address public manager;\r\n    address payable [] public players; \r\n     constructor() public{\r\n        manager = msg.sender;\r\n        \r\n    }\r\n    \r\n    function enter() public payable{\r\n        require(msg.value > 0.01 ether,\"insufficient balance\");\r\n        players.push(msg.sender);\r\n    }\r\n    \r\n  function getArray()public view returns(address payable [] memory){\r\n      return(players);\r\n      \r\n  }  \r\n  \r\n  function pickWinner() public{\r\n      uint winner = random() % players.length;\r\n      players[winner].transfer(address(this).balance);\r\n      players = new address payable[](0);\r\n  }\r\n  \r\n  function random() private returns(uint){\r\n      uint randomValue = uint(keccak256(abi.encodePacked(block.difficulty,now,players)));\r\n      return randomValue;\r\n  }\r\n    \r\n}",
  "sourcePath": "F:/Ethereum Tutorial/CODE/truffle/contracts/lottery.sol",
  "compiler": {
    "name": "solc",
    "version": "0.5.0+commit.1d4f565a.Emscripten.clang"
  },
  "schemaVersion": "3.0.9",
  "updatedAt": "2019-05-06T05:52:16.866Z",
  "devdoc": {
    "methods": {}
  },
  "userdoc": {
    "methods": {}
  }
}